:100000000C9434000C9446000C9446000C9446006A
:100010000C9446000C9446000C9446000C94460048
:100020000C9446000C9446000C9446000C94460038
:100030000C9446000C9446000C9446000C94460028
:100040000C9446000C9446000C9446000C94460018
:100050000C9446000C9458000C9446000C944600F6
:100060000C9446000C94460011241FBECFEFD8E03C
:10007000DEBFCDBF21E0A0E0B1E001C01D92A630FF
:10008000B207E1F70E94F6000C9491010C94000075
:10009000EAE7F0E080818064808308958FE88093B0
:1000A0007A0085E480937C0080E280937E0008954E
:1000B0001F920F920FB60F9211242F933F934F93DD
:1000C0005F936F937F938F939F93AF93BF93EF93C0
:1000D000FF9380910001909101010196909301019D
:1000E0008093000180917C00807F80937C008091D0
:1000F00000019091010180FD20C0809178009091D5
:100100007900909303018093020180917C008560C7
:1001100080937C000E944800FF91EF91BF91AF91C6
:100120009F918F917F916F915F914F913F912F910F
:100130000F900FBE0F901F901895809178009091AE
:100140007900909305018093040180917C00846084
:10015000DFCF9B01AC0184E0220F331F441F551FEA
:100160008A95D1F760E074E284EF90E00E943A0152
:1001700021503109410951093093C5002093C40031
:100180000895E1ECF0E0808188618083E2ECF0E0AA
:1001900080818660808308958091C000881F8827B1
:1001A000881F08959091C00095FFFCCF8093C600F2
:1001B0000895EF92FF920F931F93CF93DF938C01DB
:1001C0007B01EC01CE01801B910B8E159F053CF04D
:1001D000DF91CF911F910F91FF90EF90089589913A
:1001E0000E94D200EFCF8091C6000895CF93DF9395
:1001F00000D000D01F92CDB7DEB760E875E280E096
:1002000090E00E94A9000E94C1000E944E000E943E
:100210004800789485E0F82E8E010F5F1F4FF8019B
:100220008F2D11928A95E9F7809104019091050133
:100230004AE0B8010E945C0165E070E0C8010E94DC
:10024000D9008CE20E94D200F8018F2D11928A957C
:10025000E9F780910201909103014AE0B8010E9400
:100260005C0165E070E0C8010E94D9008AE00E944C
:10027000D200D5CFA1E21A2EAA1BBB1BFD010DC0D7
:10028000AA1FBB1FEE1FFF1FA217B307E407F50746
:1002900020F0A21BB30BE40BF50B661F771F881F22
:1002A000991F1A9469F760957095809590959B01B8
:1002B000AC01BD01CF010895BB274A3031F4992329
:1002C00022F4BDE2909581959F4F0C946801BB2765
:1002D000FB015527AA27880F991FAA1FA41710F002
:1002E000A41B83955051B9F7A05DAA3308F0A95D0E
:1002F000A193009779F7B111B1931192CB010C94AE
:100300008101DC01FC01672F71917723E1F73297BE
:1003100004C07C916D9370836291AE17BF07C8F3E0
:060320000895F894FFCFE0
:00000001FF
