:100000000C9434000C943E000C943E000C943E0082
:100010000C943E000C943E000C943E000C943E0068
:100020000C943E000C943E000C943E000C943E0058
:100030000C943E000C943E000C943E000C943E0048
:100040000C943E000C943E000C943E000C943E0038
:100050000C943E000C943E000C943E000C943E0028
:100060000C943E000C943E0011241FBECFEFD8E04C
:10007000DEBFCDBF0E9473000C94AF000C94000053
:100080009B01AC0184E0220F331F441F551F8A954A
:10009000D1F760E074E284EF90E00E948D0021507F
:1000A0003109410951093093C5002093C4000895D6
:1000B000E1ECF0E0808188618083E2ECF0E0808117
:1000C0008660808308958091C000881F8827881FDC
:1000D00008959091C00095FFFCCF8093C6000895CD
:1000E0008091C600089560E875E280E090E00E948B
:1000F00040000E945800259A0E9463008823E1F383
:100100000E947000883739F42D9A0E9469008AE0B5
:100110000E946900F1CF2D98F8CFA1E21A2EAA1BF8
:10012000BB1BFD010DC0AA1FBB1FEE1FFF1FA217A7
:10013000B307E407F50720F0A21BB30BE40BF50BA4
:10014000661F771F881F991F1A9469F7609570952D
:10015000809590959B01AC01BD01CF010895F89465
:02016000FFCFCF
:00000001FF
