:100000000C9434000C943E000C943E000C943E0082
:100010000C943E000C943E000C943E000C943E0068
:100020000C943E000C943E000C943E000C943E0058
:100030000C943E000C943E000C943E000C943E0048
:100040000C943E000C943E000C943E000C943E0038
:100050000C943E000C943E000C943E000C943E0028
:100060000C943E000C943E0011241FBECFEFD8E04C
:10007000DEBFCDBF0E9430010C94F7010C9400004C
:100080000F931F93CF93DF9300D000D000D01F9227
:10009000CDB7DEB78E010F5F1F4F27E0F801119239
:1000A0002A95E9F74AE0B8010E94C20167E070E0D2
:1000B000C8010E9499008CE20E94920027960FB618
:1000C000F894DEBF0FBECDBFDF91CF911F910F918E
:1000D00008959B01AC0184E0220F331F441F551F7C
:1000E0008A95D1F760E074E284EF90E00E94A0016D
:1000F00021503109410951093093C5002093C400B2
:100100000895E1ECF0E0808188618083E2ECF0E02A
:1001100080818660808308958091C000881F882731
:10012000881F08959091C00095FFFCCF8093C60072
:100130000895EF92FF920F931F93CF93DF938C015B
:100140007B01EC01CE01801B910B8E159F053CF0CD
:10015000DF91CF911F910F91FF90EF9008958991BA
:100160000E949200EFCF8091C60008951092B900CE
:100170008CE08093B80084E08093BC00089584EA0A
:100180008093BC008091BC0087FFFCCF089584E978
:100190008093BC008091BC0084FDFCCF08958093C7
:1001A000BB0084E88093BC008091BC0087FFFCCF3B
:1001B00008951F93CF93DF93182FD62FC42F0E943B
:1001C000BF00812F0E94CF008D2F0E94CF008C2F67
:1001D0000E94CF00DF91CF911F910C94C70020E4C3
:1001E000829FC001112484688093BC008091BC0070
:1001F00087FFFCCF8091BB000895EF92FF920F9391
:100200001F93CF93DF93C82FD62F8A0179010E94C5
:10021000BF008C2F0E94CF008D2F0E94CF000E9424
:10022000BF008C2F81600E94CF00E801CE01801BAF
:10023000910B8E159F057CF084E88093BC00809123
:10024000BC0087FFFCCFDF91CF911F910F91FF90F2
:10025000EF900C94C70081E00E94EF008993E6CFF5
:10026000CF93DF9300D000D000D0CDB7DEB760E8E9
:1002700075E280E090E00E9469000E9481000E9487
:10028000B60078942FEF81EE94E0215080409040AA
:10029000E1F700C0000040E06BE680ED0E94D9006D
:1002A00040E06BE180ED0E94D90040E06CE180ED20
:1002B0000E94D90026E030E0AE014F5F5F4F6BE354
:1002C00080ED0E94FD0089809A80982489249824DA
:1002D000AB80BC80BA24AB24BA24CD80DE80DC2481
:1002E000CD24DC2426E030E0AE014F5F5F4F63E4B5
:1002F00080ED0E94FD00E980FA80FE24EF24FE24B8
:100300006B807C807624672476240D811E811027E3
:1003100001271027C4010E944000C5010E9440002F
:10032000C6010E944000C7010E944000C3010E9414
:100330004000C8010E9440008AE00E949200BACFAB
:10034000A1E21A2EAA1BBB1BFD010DC0AA1FBB1FD9
:10035000EE1FFF1FA217B307E407F50720F0A21B4B
:10036000B30BE40BF50B661F771F881F991F1A94B8
:1003700069F760957095809590959B01AC01BD01E2
:10038000CF010895BB274A3031F4992322F4BDE20E
:10039000909581959F4F0C94CE01BB27FB0155276B
:1003A000AA27880F991FAA1FA41710F0A41B8395D2
:1003B0005051B9F7A05DAA3308F0A95DA193009749
:1003C00079F7B111B1931192CB010C94E701DC01E3
:1003D000FC01672F71917723E1F7329704C07C917C
:1003E0006D9370836291AE17BF07C8F30895F894B8
:0203F000FFCF3D
:00000001FF
