:100000000C9434000C9449000C9449000C94490061
:100010000C9449000C9449000C9449000C9449003C
:100020000C9449000C9449000C9449000C9449002C
:100030000C9449000C9449000C9449000C9449001C
:100040000C9449000C9449000C9449000C9449000C
:100050000C9449000C9449000C9449000C944900FC
:100060000C9449000C94490011241FBECFEFD8E036
:10007000DEBFCDBF11E0A0E0B1E0EEEBF1E002C0E9
:1000800005900D92AE30B107D9F70E9498000C94FC
:10009000DD000C9400009B01AC0184E0220F331FB3
:1000A000441F551F8A95D1F760E074E284EF90E019
:1000B0000E94BB0021503109410951093093C5000C
:1000C0002093C4000895E1ECF0E080818861808392
:1000D000E2ECF0E080818660808308958091C0002A
:1000E000881F8827881F08959091C00095FFFCCF36
:1000F0008093C6000895EF92FF920F931F93CF93C2
:10010000DF938C017B01EC01CE01801B910B8E15DE
:100110009F053CF0DF91CF911F910F91FF90EF90E1
:10012000089589910E947400EFCF8091C6000895D0
:10013000CF93DF93CDB7DEB72E970FB6F894DEBF1F
:100140000FBECDBF60E875E280E090E00E944B00FA
:100150000E946300259A8EE0E0E0F1E0DE01119656
:1001600001900D928A95E1F76EE070E0CE01019664
:100170000E947B00F0CFA1E21A2EAA1BBB1BFD013F
:100180000DC0AA1FBB1FEE1FFF1FA217B307E40776
:10019000F50720F0A21BB30BE40BF50B661F771FCE
:1001A000881F991F1A9469F76095709580959095AE
:0E01B0009B01AC01BD01CF010895F894FFCF73
:0E01BE0048656C6C6F20576F726C64210A00EC
:00000001FF
