:100000000C9434000C943E000C943E000C943E0082
:100010000C943E000C943E000C943E000C943E0068
:100020000C943E000C943E000C943E000C943E0058
:100030000C943E000C943E000C943E000C943E0048
:100040000C943E000C943E000C946C000C943E000A
:100050000C943E000C943E000C943E000C943E0028
:100060000C943E000C943E0011241FBECFEFD8E04C
:10007000DEBFCDBF0E947F000C94B4000C94000042
:100080009B01AC0184E0220F331F441F551F8A954A
:10009000D1F760E074E284EF90E00E949200BA0130
:1000A000A9014150510961097109BB27A72F962F5A
:1000B000852F8093C5004093C4000895E1ECF0E0E3
:1000C000808188698083E2ECF0E0808186608083B3
:1000D0008FB780688FBF08951F920F920FB60F924F
:1000E00011248F938091C600883739F42D9A8F910F
:1000F0000F900FBE0F901F9018952D98F8CF10926B
:10010000C50087E68093C4000E945E00259A78941B
:100110002FEF83ED90E3215080409040E1F700C045
:100120000000F6CFA1E21A2EAA1BBB1BFD010DC0D9
:10013000AA1FBB1FEE1FFF1FA217B307E407F50797
:1001400020F0A21BB30BE40BF50B661F771F881F73
:10015000991F1A9469F760957095809590959B0109
:0C016000AC01BD01CF010895F894FFCF61
:00000001FF
