:100000000C9434000C9446000C9446000C9446006A
:100010000C9446000C9446000C9446000C94460048
:100020000C9446000C9446000C9446000C94460038
:100030000C9446000C9448000C9446000C94460026
:100040000C9446000C9446000C9446000C94460018
:100050000C9446000C9446000C9446000C94460008
:100060000C9446000C94460011241FBECFEFD8E03C
:10007000DEBFCDBF21E0A0E0B1E001C01D92A43001
:10008000B207E1F70E94A3000C94F7000C94000063
:100090001F920F920FB60F9211242F933F934F93FD
:1000A0005F936F937F938F939F93AF93BF93EF93E0
:1000B000FF9385B190E2892785B98BE791EE909304
:1000C000850080938400609100017091010180910E
:1000D0000201909103016F5F7F4F8F4F9F4F60939D
:1000E000000170930101809302019093030123E0CA
:1000F00030E040E050E00E94B600611571058105D6
:10010000910599F480E185B9FF91EF91BF91AF918D
:100110009F918F917F916F915F914F913F912F911F
:100120000F900FBE0F901F901895613071058105DB
:10013000910511F488E0E7CF6230710581059105E2
:1001400019F784E0E0CF84B18C6184B98BE791EE3C
:10015000909385008093840085E0809381001092C5
:10016000800081E080936F007894FFCF052E97FB8D
:100170001EF400940E94CD0057FD07D00E94D500C8
:1001800007FC03D04EF40C94CD005095409530956B
:1001900021953F4F4F4F5F4F0895909580957095F3
:1001A00061957F4F8F4F9F4F0895A1E21A2EAA1B92
:1001B000BB1BFD010DC0AA1FBB1FEE1FFF1FA21717
:1001C000B307E407F50720F0A21BB30BE40BF50B14
:1001D000661F771F881F991F1A9469F7609570959D
:1001E000809590959B01AC01BD01CF010895F894D5
:0201F000FFCF3F
:00000001FF
