:100000000C9434000C9446000C9446000C9446006A
:100010000C9446000C9446000C9446000C94460048
:100020000C9446000C9446000C9446000C94460038
:100030000C9446000C9448000C9446000C94460026
:100040000C9446000C9446000C9446000C94460018
:100050000C9446000C9446000C9446000C94460008
:100060000C9446000C94460011241FBECFEFD8E03C
:10007000DEBFCDBF21E0A0E0B1E001C01D92A23003
:10008000B207E1F70E9452000C9497000C94000014
:100090001F920F920FB60F9211240F900FBE0F9068
:1000A0001F90189584B18E6284B981E080936F00AF
:1000B00082E88093800089E18093810078948FEFBB
:1000C0009FEF909387008093860010928900109292
:1000D000880020E031E040E25FEF81EE94E0515093
:1000E00080409040E1F700C00000809100019091B5
:1000F000010121111AC00196909301018093000122
:10010000809100019091010101978E3F9F4F20F057
:10011000232785B1842785B9809100019091010141
:100120009093890080938800D7CF0197E5CFF8940A
:02013000FFCFFF
:00000001FF
