:100000000C9434000C943E000C943E000C943E0082
:100010000C943E000C943E000C943E000C943E0068
:100020000C943E000C943E000C943E000C943E0058
:100030000C943E000C943E000C943E000C943E0048
:100040000C943E000C943E000C943E000C943E0038
:100050000C943E000C943E000C943E000C943E0028
:100060000C943E000C943E0011241FBECFEFD8E04C
:10007000DEBFCDBF0E948D000C94DD000C9400000B
:100080009B01AC0184E0220F331F441F551F8A954A
:10009000D1F760E074E284EF90E00E94BB00215051
:1000A0003109410951093093C5002093C4000895D6
:1000B000E1ECF0E0808188618083E2ECF0E0808117
:1000C0008660808308958091C000881F8827881FDC
:1000D00008959091C00095FFFCCF8093C6000895CD
:1000E000EF92FF920F931F93CF93DF938C017B01CD
:1000F000EC01CE01801B910B8E159F053CF0DF912A
:10010000CF911F910F91FF90EF90089589910E94D8
:100110006900EFCF8091C6000895CF93DF93CDB7EC
:10012000DEB764970FB6F894DEBF0FBECDBF60E8B0
:1001300075E280E090E00E9440000E945800CE01ED
:1001400001967C0110E000E06C010E9463008111C7
:1001500004C00115110599F309C00E948A00F70136
:1001600081937F010F5F1F4F8A3079F7B801C60175
:100170000E947000E4CFA1E21A2EAA1BBB1BFD0156
:100180000DC0AA1FBB1FEE1FFF1FA217B307E40776
:10019000F50720F0A21BB30BE40BF50B661F771FCE
:1001A000881F991F1A9469F76095709580959095AE
:0E01B0009B01AC01BD01CF010895F894FFCF73
:00000001FF
