:100000000C9434000C9446000C9446000C9446006A
:100010000C9446000C9446000C9446000C94460048
:100020000C9446000C9446000C9446000C94460038
:100030000C9446000C9446000C9446000C94460028
:100040000C9484000C9446000C9446000C944600DA
:100050000C9446000C9458000C9446000C944600F6
:100060000C9446000C94460011241FBECFEFD8E03C
:10007000DEBFCDBF21E0A0E0B1E001C01D92A43001
:10008000B207E1F70E94A5000C94B2000C940000A6
:10009000EAE7F0E080818064808308958FE88093B0
:1000A0007A0085E480937C0080E280937E0008954E
:1000B0001F920F920FB60F9211242F933F934F93DD
:1000C0005F936F937F938F939F93AF93BF93EF93C0
:1000D000FF93809178009091790090930301809331
:1000E00002010E944800FF91EF91BF91AF919F9153
:1000F0008F917F916F915F914F913F912F910F90D1
:100100000FBE0F901F9018951F920F920FB60F926F
:1001100011248F939F93809102019091030197FD89
:100120000396959587959595879590930101809372
:100130000001809100019091010187BD9F918F91F5
:100140000F900FBE0F901F9018950E944E000E94B6
:100150004800569A81E884BD81E085BD80936E0099
:080160007894FFCFF894FFCF63
:00000001FF
