:100000000C9434000C943E000C943E000C943E0082
:100010000C943E000C943E000C943E000C943E0068
:100020000C943E000C943E000C943E000C943E0058
:100030000C943E000C943E000C943E000C943E0048
:100040000C943E000C943E000C943E000C943E0038
:100050000C943E000C943E000C943E000C943E0028
:100060000C943E000C943E0011241FBECFEFD8E04C
:10007000DEBFCDBF0E944E000C9452000C940000D5
:1000800085B190E2892785B92FEF81EE94E0215068
:1000900080409040E1F700C000000895259A0E943A
:0800A0004000FDCFF894FFCFF2
:00000001FF
