:100000000C9434000C943E000C943E000C943E0082
:100010000C943E000C943E000C943E000C943E0068
:100020000C943E000C943E000C943E000C943E0058
:100030000C943E000C943E000C943E000C943E0048
:100040000C943E000C943E000C943E000C943E0038
:100050000C943E000C943E000C943E000C943E0028
:100060000C943E000C943E0011241FBECFEFD8E04C
:10007000DEBFCDBF0E9440000C946A000C940000CB
:1000800084B18C6184B98CE184B994E095B92FEF87
:1000900037E883E1215030408040E1F700C00000A4
:1000A00085B1880F85B92FEF37E883E121503040C3
:1000B0008040E1F700C0000085B1880F85B92FEFBF
:1000C00037E883E1215030408040E1F700C0000074
:0800D00015B8DCCFF894FFCF56
:00000001FF
