:100000000C9434000C9446000C9446000C9446006A
:100010000C9446000C9446000C9446000C94460048
:100020000C9446000C945A000C9446000C94460024
:100030000C9446000C9446000C9446000C94460028
:100040000C9448000C9446000C9446000C94460016
:100050000C9446000C9446000C9446000C94460008
:100060000C9446000C94460011241FBECFEFD8E03C
:10007000DEBFCDBF21E0A0E0B1E001C01D92A13004
:10008000B207E1F70E946A000C9491000C94000002
:100090001F920F920FB60F9211248F93809100013F
:1000A00087BD8091000188BD8F910F900FBE0F908A
:1000B0001F9018951F920F920FB60F9211248F93D5
:1000C000809100018093B4008F910F900FBE0F902C
:1000D0001F9018958AB188668AB981EA84BD81E04B
:1000E00080936E0091E29093B000809370007894BA
:1000F00085BD90E021E0EFE3FCE93197F1F700C026
:1001000000008091000191110AC08F5F809300016F
:100110008091000181508E3F70F39227ECCF815087
:06012000F5CFF894FFCFBB
:00000001FF
