:100000000C9434000C9446000C9446000C9446006A
:100010000C9446000C9446000C9446000C94460048
:100020000C9446000C9446000C9446000C94460038
:100030000C9446000C9446000C9446000C94460028
:100040000C9446000C9446000C9446000C94460018
:100050000C9446000C9446000C9446000C94460008
:100060000C9446000C94460011241FBECFEFD8E03C
:10007000DEBFCDBF21E0A0E0B1E001C01D92A23003
:10008000B207E1F70E9448000C9471000C94000044
:100090005A9A259A80E040E260E375E799B194703E
:1000A00020910001309101012115310579F4992346
:1000B00059F08111F3CF85B1842785B9709301017F
:1000C0006093000181E0EACF80E0E8CF81E0911108
:1000D00001C080E0215031093093010120930001DB
:0600E000DDCFF894FFCF14
:00000001FF
