:100000000C9434000C943E000C943E000C943E0082
:100010000C943E000C943E000C943E000C943E0068
:100020000C943E000C943E000C943E000C943E0058
:100030000C943E000C943E000C943E000C943E0048
:100040000C943E000C943E000C943E000C943E0038
:100050000C943E000C943E000C943E000C943E0028
:100060000C943E000C943E0011241FBECFEFD8E04C
:10007000DEBFCDBF0E9475000C94B1000C9400004F
:100080009B01AC01969587957795679560587B475E
:10009000814E9F4F0E948F00215031094109510923
:1000A0003093C5002093C4000895E0ECF0E0808117
:1000B00082608083E1ECF0E0808188618083E2EC03
:1000C000F0E080818660808308958091C000881F61
:1000D0008827881F08959091C00095FFFCCF8093DA
:1000E000C60008958091C600089560E072EC81E03A
:1000F00090E00E9440000E945500259A0E946500F1
:100100008823E1F30E947200883739F42D9A0E9407
:100110006B008AE00E946B00F1CF2D98F8CFA1E22E
:100120001A2EAA1BBB1BFD010DC0AA1FBB1FEE1F71
:10013000FF1FA217B307E407F50720F0A21BB30BBC
:10014000E40BF50B661F771F881F991F1A9469F738
:1001500060957095809590959B01AC01BD01CF0194
:060160000895F894FFCFA2
:00000001FF
