:100000000C9434000C9440000C943E000C943E0080
:100010000C943E000C943E000C943E000C943E0068
:100020000C943E000C943E000C943E000C943E0058
:100030000C943E000C943E000C943E000C943E0048
:100040000C943E000C943E000C943E000C943E0038
:100050000C943E000C943E000C943E000C943E0028
:100060000C943E000C943E0011241FBECFEFD8E04C
:10007000DEBFCDBF0E9452000C945F000C940000C4
:100080001F920F920FB60F9211248F939F9385B1F9
:1000900090E2892785B99F918F910F900FBE0F90A5
:1000A0001F9018955A9A259A8FB780688FBFE89A43
:1000B000809169008260809369007894FFCFF89402
:0200C000FFCF70
:00000001FF
