:100000000C9434000C9446000C9446000C9446006A
:100010000C9446000C9446000C9446000C94460048
:100020000C9446000C9446000C9446000C94460038
:100030000C9446000C9448000C9446000C94460026
:100040000C9446000C9446000C9446000C94460018
:100050000C9446000C9446000C9446000C94460008
:100060000C9446000C94460011241FBECFEFD8E03C
:10007000DEBFCDBF21E0A0E0B1E001C01D92A03104
:10008000B207E1F70E9473000C9411010C94000078
:100090001F920F920FB60F9211248F939F93AF93DD
:1000A000BF9385E09FEF90938500809384008091BB
:1000B0000C0190910D01A0910E01B0910F010196DC
:1000C000A11DB11D80930C0190930D01A0930E0111
:1000D000B0930F01BF91AF919F918F910F900FBE81
:1000E0000F901F90189584B18C6384B985E09FEFC1
:1000F000909385008093840083E080938100109228
:10010000800081E080936F00789440E158E034E013
:10011000F89480910C0190910D01A0910E01B09185
:100120000F017894C0900801D0900901E0900A0175
:10013000F0900B014C015D018C189D08AE08BF08C2
:100140007501640128EEC21623E0D206E104F10431
:1001500098F025B1242725B9C0900C01D0900D014D
:10016000E0900E01F0900F01C0920801D0920901B9
:10017000E0920A01F0920B01C0900401D0900501B9
:10018000E0900601F09007014C015D018C189D087C
:10019000AE08BF087501640120EDC21627E0D20643
:1001A000E104F10498F025B1252725B9C0900C0190
:1001B000D0900D01E0900E01F0900F01C09204016B
:1001C000D0920501E0920601F0920701C090000173
:1001D000D0900101E0900201F09003018C199D097B
:1001E000AE09BF09883B9B40A105B10508F490CF3B
:1001F00085B1832785B980916F008E7F80936F00D2
:1002000080910C0190910D01A0910E01B0910F0110
:100210008093000190930101A0930201B093030128
:0602200077CFF894FFCF38
:00000001FF
