:100000000C9434000C9446000C9446000C9446006A
:100010000C9446000C9446000C9446000C94460048
:100020000C9446000C9446000C9446000C94460038
:100030000C9446000C9448000C9446000C94460026
:100040000C9446000C9446000C9446000C94460018
:100050000C9446000C9446000C9446000C94460008
:100060000C9446000C94460011241FBECFEFD8E03C
:10007000DEBFCDBF21E0A0E0B1E001C01D92A830FD
:10008000B207E1F70E9473000C94C2000C940000C8
:100090001F920F920FB60F9211248F939F93AF93DD
:1000A000BF9385E09FEF90938500809384008091BB
:1000B000040190910501A0910601B09107010196FC
:1000C000A11DB11D8093040190930501A093060129
:1000D000B0930701BF91AF919F918F910F900FBE89
:1000E0000F901F90189584B18C6384B95A9A83E05D
:1000F0008093810010928000789481E031E045E0A7
:100100005FEF20E191E04A9922C090E0C0900401A5
:10011000D0900501E0900601F090070188E8C8162C
:1001200083E1D806E104F10480F085B1822785B926
:1001300080916F008E7F80936F0010920401109267
:1001400005011092060110920701892FDBCF811162
:10015000DDCF509385004093840030936F00F89476
:10016000C0900401D0900501E0900601F0900701D5
:1001700010920401109205011092060110920701DD
:080180007894C4CFF894FFCF7E
:00000001FF
