:100000000C9434000C943E000C943E000C943E0082
:100010000C943E000C943E000C943E000C943E0068
:100020000C943E000C943E000C943E000C943E0058
:100030000C943E000C943E000C943E000C943E0048
:100040000C943E000C943E000C943E000C943E0038
:100050000C943E000C943E000C943E000C943E0028
:100060000C943E000C943E0011241FBECFEFD8E04C
:10007000DEBFCDBF0E9440000C947B000C940000BA
:1000800082E8809380008BE18093810087E893E190
:100090009093870080938600219A4DE750E022E7F5
:1000A00031E087E692E050938900409388006FEF3B
:1000B00077EAE1E661507040E040E1F700C00000FF
:1000C00030938900209388006FEF77EAE1E6615072
:1000D0007040E040E1F700C00000909389008093F9
:1000E00088006FEF77EAE1E661507040E040E1F7A9
:0A00F00000C00000D8CFF894FFCF45
:00000001FF
