:100000000C9434000C9446000C9446000C9446006A
:100010000C9446000C9446000C9446000C94460048
:100020000C9446000C9446000C9446000C94460038
:100030000C9446000C9446000C9446000C94460028
:100040000C9446000C9446000C9446000C94460018
:100050000C9446000C9446000C9446000C94460008
:100060000C9446000C94460011241FBECFEFD8E03C
:10007000DEBFCDBF21E0A0E0B1E001C01D92A13004
:10008000B207E1F70E9448000C949B000C9400001A
:100090008AB188668AB981EA84BD81E28093B00022
:1000A000789481E085BD8093B10090E020E043E04A
:1000B000EFE3FCE93197F1F700C000008091000107
:1000C000211114C08F5F80930001309100018FEFE8
:1000D000830F8E3F70F0222359F0311105C081E06B
:1000E000890F642F0E948F0020E003C08150EBCF66
:1000F00021E0913079F048F09230D1F617BC18BC6D
:10010000809100018093B400D3CF37BD18BC10920A
:10011000B400CECF17BC8091000188BDF8CF991BE9
:1001200079E004C0991F961708F0961B881F7A95EE
:0A013000C9F780950895F894FFCFF9
:00000001FF
